{
  "contractName": "Braided",
  "abi": [
    {
      "constant": true,
      "inputs": [
        {
          "name": "_operator",
          "type": "address"
        },
        {
          "name": "_role",
          "type": "string"
        }
      ],
      "name": "checkRole",
      "outputs": [],
      "payable": false,
      "stateMutability": "view",
      "type": "function"
    },
    {
      "constant": true,
      "inputs": [
        {
          "name": "_operator",
          "type": "address"
        },
        {
          "name": "_role",
          "type": "string"
        }
      ],
      "name": "hasRole",
      "outputs": [
        {
          "name": "",
          "type": "bool"
        }
      ],
      "payable": false,
      "stateMutability": "view",
      "type": "function"
    },
    {
      "constant": true,
      "inputs": [
        {
          "name": "",
          "type": "uint256"
        }
      ],
      "name": "chains",
      "outputs": [
        {
          "name": "chainID",
          "type": "uint256"
        },
        {
          "name": "braidedContract",
          "type": "address"
        },
        {
          "name": "genesisBlockHash",
          "type": "bytes32"
        },
        {
          "name": "description",
          "type": "string"
        }
      ],
      "payable": false,
      "stateMutability": "view",
      "type": "function"
    },
    {
      "constant": false,
      "inputs": [
        {
          "name": "_newSuperuser",
          "type": "address"
        }
      ],
      "name": "transferSuperuser",
      "outputs": [],
      "payable": false,
      "stateMutability": "nonpayable",
      "type": "function"
    },
    {
      "constant": false,
      "inputs": [],
      "name": "renounceOwnership",
      "outputs": [],
      "payable": false,
      "stateMutability": "nonpayable",
      "type": "function"
    },
    {
      "constant": true,
      "inputs": [],
      "name": "owner",
      "outputs": [
        {
          "name": "",
          "type": "address"
        }
      ],
      "payable": false,
      "stateMutability": "view",
      "type": "function"
    },
    {
      "constant": true,
      "inputs": [
        {
          "name": "_addr",
          "type": "address"
        }
      ],
      "name": "isSuperuser",
      "outputs": [
        {
          "name": "",
          "type": "bool"
        }
      ],
      "payable": false,
      "stateMutability": "view",
      "type": "function"
    },
    {
      "constant": true,
      "inputs": [],
      "name": "ROLE_SUPERUSER",
      "outputs": [
        {
          "name": "",
          "type": "string"
        }
      ],
      "payable": false,
      "stateMutability": "view",
      "type": "function"
    },
    {
      "constant": false,
      "inputs": [
        {
          "name": "_newOwner",
          "type": "address"
        }
      ],
      "name": "transferOwnership",
      "outputs": [],
      "payable": false,
      "stateMutability": "nonpayable",
      "type": "function"
    },
    {
      "inputs": [],
      "payable": false,
      "stateMutability": "nonpayable",
      "type": "constructor"
    },
    {
      "anonymous": false,
      "inputs": [
        {
          "indexed": true,
          "name": "operator",
          "type": "address"
        },
        {
          "indexed": false,
          "name": "role",
          "type": "string"
        }
      ],
      "name": "RoleAdded",
      "type": "event"
    },
    {
      "anonymous": false,
      "inputs": [
        {
          "indexed": true,
          "name": "operator",
          "type": "address"
        },
        {
          "indexed": false,
          "name": "role",
          "type": "string"
        }
      ],
      "name": "RoleRemoved",
      "type": "event"
    },
    {
      "anonymous": false,
      "inputs": [
        {
          "indexed": true,
          "name": "previousOwner",
          "type": "address"
        }
      ],
      "name": "OwnershipRenounced",
      "type": "event"
    },
    {
      "anonymous": false,
      "inputs": [
        {
          "indexed": true,
          "name": "previousOwner",
          "type": "address"
        },
        {
          "indexed": true,
          "name": "newOwner",
          "type": "address"
        }
      ],
      "name": "OwnershipTransferred",
      "type": "event"
    },
    {
      "constant": false,
      "inputs": [
        {
          "name": "chainID",
          "type": "uint256"
        },
        {
          "name": "braidedContract",
          "type": "address"
        },
        {
          "name": "genesisBlockHash",
          "type": "bytes32"
        },
        {
          "name": "description",
          "type": "string"
        }
      ],
      "name": "addChain",
      "outputs": [],
      "payable": false,
      "stateMutability": "nonpayable",
      "type": "function"
    },
    {
      "constant": true,
      "inputs": [],
      "name": "getChainCount",
      "outputs": [
        {
          "name": "",
          "type": "uint256"
        }
      ],
      "payable": false,
      "stateMutability": "view",
      "type": "function"
    },
    {
      "constant": true,
      "inputs": [
        {
          "name": "chainID",
          "type": "uint256"
        }
      ],
      "name": "getBraidedContract",
      "outputs": [
        {
          "name": "",
          "type": "address"
        }
      ],
      "payable": false,
      "stateMutability": "view",
      "type": "function"
    },
    {
      "constant": true,
      "inputs": [
        {
          "name": "chainID",
          "type": "uint256"
        }
      ],
      "name": "getGenesisBlockHash",
      "outputs": [
        {
          "name": "",
          "type": "bytes32"
        }
      ],
      "payable": false,
      "stateMutability": "view",
      "type": "function"
    },
    {
      "constant": true,
      "inputs": [
        {
          "name": "chainID",
          "type": "uint256"
        }
      ],
      "name": "getChainDescription",
      "outputs": [
        {
          "name": "",
          "type": "string"
        }
      ],
      "payable": false,
      "stateMutability": "view",
      "type": "function"
    },
    {
      "constant": false,
      "inputs": [
        {
          "name": "agent",
          "type": "address"
        },
        {
          "name": "chainID",
          "type": "uint256"
        }
      ],
      "name": "addAgent",
      "outputs": [],
      "payable": false,
      "stateMutability": "nonpayable",
      "type": "function"
    },
    {
      "constant": false,
      "inputs": [
        {
          "name": "agent",
          "type": "address"
        },
        {
          "name": "chainID",
          "type": "uint256"
        }
      ],
      "name": "removeAgent",
      "outputs": [],
      "payable": false,
      "stateMutability": "nonpayable",
      "type": "function"
    },
    {
      "constant": false,
      "inputs": [
        {
          "name": "chainID",
          "type": "uint256"
        },
        {
          "name": "blockNumber",
          "type": "uint256"
        },
        {
          "name": "blockHash",
          "type": "bytes32"
        }
      ],
      "name": "addBlock",
      "outputs": [],
      "payable": false,
      "stateMutability": "nonpayable",
      "type": "function"
    },
    {
      "constant": true,
      "inputs": [
        {
          "name": "chainID",
          "type": "uint256"
        },
        {
          "name": "blockNumber",
          "type": "uint256"
        }
      ],
      "name": "getBlockHash",
      "outputs": [
        {
          "name": "",
          "type": "bytes32"
        }
      ],
      "payable": false,
      "stateMutability": "view",
      "type": "function"
    },
    {
      "constant": true,
      "inputs": [
        {
          "name": "chainID",
          "type": "uint256"
        }
      ],
      "name": "getHighestBlockNumber",
      "outputs": [
        {
          "name": "",
          "type": "uint256"
        }
      ],
      "payable": false,
      "stateMutability": "view",
      "type": "function"
    },
    {
      "constant": true,
      "inputs": [
        {
          "name": "chainID",
          "type": "uint256"
        },
        {
          "name": "blockNumber",
          "type": "uint256"
        }
      ],
      "name": "getPreviousBlockNumber",
      "outputs": [
        {
          "name": "",
          "type": "uint256"
        }
      ],
      "payable": false,
      "stateMutability": "view",
      "type": "function"
    },
    {
      "constant": true,
      "inputs": [
        {
          "name": "chainID",
          "type": "uint256"
        },
        {
          "name": "blockNumber",
          "type": "uint256"
        }
      ],
      "name": "getPreviousBlock",
      "outputs": [
        {
          "name": "prevBlockNumber",
          "type": "uint256"
        },
        {
          "name": "prevBlockHash",
          "type": "bytes32"
        }
      ],
      "payable": false,
      "stateMutability": "view",
      "type": "function"
    }
  ],
  "bytecode": "0x60806040523480156200001157600080fd5b5060008054600160a060020a0319163390811790915560408051808201909152600981527f7375706572757365720000000000000000000000000000000000000000000000602082015262000070919064010000000062000187810204565b604080516080810182526000808252602080830182815283850183815285518084019096528386526060850195865260038054600181018083559190955285517fc2575a0e9e593c00f959f8c92f12db2869c3395a3b0502d05e2516446f71f85b600490960295860190815592517fc2575a0e9e593c00f959f8c92f12db2869c3395a3b0502d05e2516446f71f85c86018054600160a060020a031916600160a060020a0390921691909117905590517fc2575a0e9e593c00f959f8c92f12db2869c3395a3b0502d05e2516446f71f85d8501559451805191936200017d937fc2575a0e9e593c00f959f8c92f12db2869c3395a3b0502d05e2516446f71f85e90910192910190620002d2565b5050505062000377565b62000203826001836040518082805190602001908083835b60208310620001c05780518252601f1990920191602091820191016200019f565b51815160209384036101000a6000190180199092169116179052920194855250604051938490030190922092915050640100000000620002ad8102620018551704565b81600160a060020a03167fbfec83d64eaa953f2708271a023ab9ee82057f8f3578d548c1a4ba0b5b700489826040518080602001828103825283818151815260200191508051906020019080838360005b838110156200026e57818101518382015260200162000254565b50505050905090810190601f1680156200029c5780820380516001836020036101000a031916815260200191505b509250505060405180910390a25050565b600160a060020a0316600090815260209190915260409020805460ff19166001179055565b828054600181600116156101000203166002900490600052602060002090601f016020900481019282601f106200031557805160ff191683800117855562000345565b8280016001018555821562000345579182015b828111156200034557825182559160200191906001019062000328565b506200035392915062000357565b5090565b6200037491905b808211156200035357600081556001016200035e565b90565b611a3480620003876000396000f30060806040526004361061011c5763ffffffff7c010000000000000000000000000000000000000000000000000000000060003504166305c270e281146101215780630988ca8c1461014e5780630d7bf53c146101b7578063217fe6c6146101d257806348c981bd1461024d578063550325b51461026557806357c393fa14610324578063596939f5146103455780635afa2a8714610369578063715018a6146103f65780637eb826011461040b5780638da5cb5b1461042357806391a0141414610454578063bceee05e14610488578063d25d23bd146104a9578063e9c6c176146104be578063ebb4f484146104dc578063eda8b150146104f1578063ee58699214610509578063f2fde38b1461053e578063f7eaec4f1461055f575b600080fd5b34801561012d57600080fd5b5061013c600435602435610583565b60408051918252519081900360200190f35b34801561015a57600080fd5b5060408051602060046024803582810135601f81018590048502860185019096528585526101b5958335600160a060020a03169536956044949193909101919081908401838280828437509497506106959650505050505050565b005b3480156101c357600080fd5b5061013c600435602435610703565b3480156101de57600080fd5b5060408051602060046024803582810135601f8101859004850286018501909652858552610239958335600160a060020a03169536956044949193909101919081908401838280828437509497506108849650505050505050565b604080519115158252519081900360200190f35b34801561025957600080fd5b5061013c6004356108f7565b34801561027157600080fd5b5061027d6004356109b7565b6040518085815260200184600160a060020a0316600160a060020a03168152602001836000191660001916815260200180602001828103825283818151815260200191508051906020019080838360005b838110156102e65781810151838201526020016102ce565b50505050905090810190601f1680156103135780820380516001836020036101000a031916815260200191505b509550505050505060405180910390f35b34801561033057600080fd5b506101b5600160a060020a0360043516610a86565b34801561035157600080fd5b506101b5600160a060020a0360043516602435610b25565b34801561037557600080fd5b50610381600435610bfa565b6040805160208082528351818301528351919283929083019185019080838360005b838110156103bb5781810151838201526020016103a3565b50505050905090810190601f1680156103e85780820380516001836020036101000a031916815260200191505b509250505060405180910390f35b34801561040257600080fd5b506101b5610d47565b34801561041757600080fd5b5061013c600435610db3565b34801561042f57600080fd5b50610438610e73565b60408051600160a060020a039092168252519081900360200190f35b34801561046057600080fd5b5061046f600435602435610e82565b6040805192835260208301919091528051918290030190f35b34801561049457600080fd5b50610239600160a060020a0360043516610f84565b3480156104b557600080fd5b5061013c610fb9565b3480156104ca57600080fd5b506101b5600435602435604435610fc4565b3480156104e857600080fd5b5061038161122d565b3480156104fd57600080fd5b50610438600435611252565b34801561051557600080fd5b506101b5600480359060248035600160a060020a0316916044359160643590810191013561131c565b34801561054a57600080fd5b506101b5600160a060020a036004351661153d565b34801561056b57600080fd5b506101b5600160a060020a036004351660243561156e565b6000828152600460209081526040808320548151808301909252600d82526000805160206119e983398151915292820192909252849115156106465760405160e560020a62461bcd0281526004018080602001828103825283818151815260200191508051906020019080838360005b8381101561060b5781810151838201526020016105f3565b50505050905090810190601f1680156106385780820380516001836020036101000a031916815260200191505b509250505060405180910390fd5b5060008481526005602090815260408083206006835281842087855290925290912054815460001990910190811061067a57fe5b90600052602060002090600202016000015491505092915050565b6106ff826001836040518082805190602001908083835b602083106106cb5780518252601f1990920191602091820191016106ac565b51815160209384036101000a600019018019909216911617905292019485525060405193849003019092209291505061163e565b5050565b600061070d611919565b600084815260046020908152604091829020548251808401909352600d83526000805160206119e98339815191529183019190915285919015156107965760405160e560020a62461bcd0281526004018080602001828103825283818151815260200191508051906020019080838360008381101561060b5781810151838201526020016105f3565b5060008581526005602090815260408083206006835281842088855290925290912054815481106107c357fe5b600091825260209182902060408051808201825260029093029091018054808452600190910154838501528151808301909252600d82527f696e76616c696420626c6f636b00000000000000000000000000000000000000938201939093529093509085146108775760405160e560020a62461bcd0281526004018080602001828103825283818151815260200191508051906020019080838360008381101561060b5781810151838201526020016105f3565b5050602001519392505050565b60006108f0836001846040518082805190602001908083835b602083106108bc5780518252601f19909201916020918201910161089d565b51815160209384036101000a6000190180199092169116179052920194855250604051938490030190922092915050611653565b9392505050565b6000818152600460209081526040808320548151808301909252600d82526000805160206119e9833981519152928201929092528391151561097e5760405160e560020a62461bcd0281526004018080602001828103825283818151815260200191508051906020019080838360008381101561060b5781810151838201526020016105f3565b5060008381526004602052604090205460038054909190811061099d57fe5b906000526020600020906004020160020154915050919050565b60038054829081106109c557fe5b60009182526020918290206004919091020180546001808301546002808501546003860180546040805161010097831615979097026000190190911693909304601f8101899004890286018901909352828552949750600160a060020a039092169591949391830182828015610a7c5780601f10610a5157610100808354040283529160200191610a7c565b820191906000526020600020905b815481529060010190602001808311610a5f57829003601f168201915b5050505050905084565b610ab3336040805190810160405280600981526020016000805160206119c9833981519152815250610695565b600160a060020a0381161515610ac857600080fd5b610af5336040805190810160405280600981526020016000805160206119c9833981519152815250611672565b610b22816040805190810160405280600981526020016000805160206119c9833981519152815250611783565b50565b600054600160a060020a0316331480610b425750610b4233610f84565b1515610b4d57600080fd5b600081815260046020908152604091829020548251808401909352600d83526000805160206119e9833981519152918301919091528291901515610bd65760405160e560020a62461bcd0281526004018080602001828103825283818151815260200191508051906020019080838360008381101561060b5781810151838201526020016105f3565b506000828152600260205260409020610bf5908463ffffffff61185516565b505050565b600081815260046020908152604091829020548251808401909352600d83526000805160206119e98339815191529183019190915260609183911515610c855760405160e560020a62461bcd0281526004018080602001828103825283818151815260200191508051906020019080838360008381101561060b5781810151838201526020016105f3565b50600083815260046020526040902054600380549091908110610ca457fe5b6000918252602091829020600360049092020101805460408051601f6002600019610100600187161502019094169390930492830185900485028101850190915281815292830182828015610d3a5780601f10610d0f57610100808354040283529160200191610d3a565b820191906000526020600020905b815481529060010190602001808311610d1d57829003601f168201915b5050505050915050919050565b600054600160a060020a03163314610d5e57600080fd5b60008054604051600160a060020a03909116917ff8df31144d9c2f0f6b59d69b8b98abd5459d07f2742c4df920b25aae33c6482091a26000805473ffffffffffffffffffffffffffffffffffffffff19169055565b6000818152600460209081526040808320548151808301909252600d82526000805160206119e98339815191529282019290925283911515610e3a5760405160e560020a62461bcd0281526004018080602001828103825283818151815260200191508051906020019080838360008381101561060b5781810151838201526020016105f3565b50600083815260056020526040902080546000198101908110610e5957fe5b906000526020600020906002020160000154915050919050565b600054600160a060020a031681565b600080610e8d611919565b600085815260046020908152604091829020548251808401909352600d83526000805160206119e9833981519152918301919091528691901515610f165760405160e560020a62461bcd0281526004018080602001828103825283818151815260200191508051906020019080838360008381101561060b5781810151838201526020016105f3565b50600086815260056020908152604080832060068352818420898552909252909120548154600019909101908110610f4a57fe5b6000918252602091829020604080518082019091526002909202018054808352600190910154919092018190529097909650945050505050565b6000610fb3826040805190810160405280600981526020016000805160206119c9833981519152815250610884565b92915050565b600354600019015b90565b600083815260046020908152604091829020548251808401909352600d83526000805160206119e983398151915291830191909152849190151561104d5760405160e560020a62461bcd0281526004018080602001828103825283818151815260200191508051906020019080838360008381101561060b5781810151838201526020016105f3565b50600084815260026020526040902061106c903363ffffffff61165316565b60408051808201909152600d81527f6e6f207065726d697373696f6e0000000000000000000000000000000000000060208201529015156110f25760405160e560020a62461bcd0281526004018080602001828103825283818151815260200191508051906020019080838360008381101561060b5781810151838201526020016105f3565b50600084815260056020526040902054158061113e575060008481526005602052604090208054849190600019810190811061112a57fe5b906000526020600020906002020160000154105b60408051808201909152600d81527f696e76616c696420626c6f636b0000000000000000000000000000000000000060208201529015156111c45760405160e560020a62461bcd0281526004018080602001828103825283818151815260200191508051906020019080838360008381101561060b5781810151838201526020016105f3565b50506000838152600560209081526040808320815180830183528681528084019586528154600181810184558387528587209251600290920290920190815595519501949094559482529154600683528482209382529290915291909120600019919091019055565b60408051808201909152600981526000805160206119c9833981519152602082015281565b6000818152600460209081526040808320548151808301909252600d82526000805160206119e983398151915292820192909252839115156112d95760405160e560020a62461bcd0281526004018080602001828103825283818151815260200191508051906020019080838360008381101561060b5781810151838201526020016105f3565b506000838152600460205260409020546003805490919081106112f857fe5b6000918252602090912060049091020160010154600160a060020a03169392505050565b600054600160a060020a0316331480611339575061133933610f84565b151561134457600080fd5b60408051808201909152600d81526000805160206119e983398151915260208201528515156113b85760405160e560020a62461bcd0281526004018080602001828103825283818151815260200191508051906020019080838360008381101561060b5781810151838201526020016105f3565b50600085815260046020908152604091829020548251808401909352600d83526000805160206119e9833981519152918301919091521561143e5760405160e560020a62461bcd0281526004018080602001828103825283818151815260200191508051906020019080838360008381101561060b5781810151838201526020016105f3565b50600360806040519081016040528087815260200186600160a060020a031681526020018560001916815260200184848080601f016020809104026020016040519081016040528093929190818152602001838380828437505050929093525050825460018082018086556000958652602095869020855160049094020192835584860151918301805473ffffffffffffffffffffffffffffffffffffffff1916600160a060020a039093169290921790915560408401516002830155606084015180519195929350611518926003850192910190611930565b5050600354600097885260046020526040909720600019909701909655505050505050565b600054600160a060020a031633148061155a575061155a33610f84565b151561156557600080fd5b610b228161187a565b600054600160a060020a031633148061158b575061158b33610f84565b151561159657600080fd5b600081815260046020908152604091829020548251808401909352600d83526000805160206119e983398151915291830191909152829190151561161f5760405160e560020a62461bcd0281526004018080602001828103825283818151815260200191508051906020019080838360008381101561060b5781810151838201526020016105f3565b506000828152600260205260409020610bf5908463ffffffff6118f716565b6116488282611653565b15156106ff57600080fd5b600160a060020a03166000908152602091909152604090205460ff1690565b6116dc826001836040518082805190602001908083835b602083106116a85780518252601f199092019160209182019101611689565b51815160209384036101000a60001901801990921691161790529201948552506040519384900301909220929150506118f7565b81600160a060020a03167fd211483f91fc6eff862467f8de606587a30c8fc9981056f051b897a418df803a826040518080602001828103825283818151815260200191508051906020019080838360005b8381101561174557818101518382015260200161172d565b50505050905090810190601f1680156117725780820380516001836020036101000a031916815260200191505b509250505060405180910390a25050565b6117ed826001836040518082805190602001908083835b602083106117b95780518252601f19909201916020918201910161179a565b51815160209384036101000a6000190180199092169116179052920194855250604051938490030190922092915050611855565b81600160a060020a03167fbfec83d64eaa953f2708271a023ab9ee82057f8f3578d548c1a4ba0b5b700489826040518080602001828103825283818151815260200191508051906020019080838360008381101561174557818101518382015260200161172d565b600160a060020a0316600090815260209190915260409020805460ff19166001179055565b600160a060020a038116151561188f57600080fd5b60008054604051600160a060020a03808516939216917f8be0079c531659141344cd1fd0a4f28419497f9722a3daafe3b4186f6b6457e091a36000805473ffffffffffffffffffffffffffffffffffffffff1916600160a060020a0392909216919091179055565b600160a060020a0316600090815260209190915260409020805460ff19169055565b604080518082019091526000808252602082015290565b828054600181600116156101000203166002900490600052602060002090601f016020900481019282601f1061197157805160ff191683800117855561199e565b8280016001018555821561199e579182015b8281111561199e578251825591602001919060010190611983565b506119aa9291506119ae565b5090565b610fc191905b808211156119aa57600081556001016119b456007375706572757365720000000000000000000000000000000000000000000000696e76616c696420636861696e00000000000000000000000000000000000000a165627a7a7230582099a422df47e55109fd68fce9fd30839b36b1ac47730ce835fcbe13d4fbd510830029",
  "source": "pragma solidity ^0.4.24;\n\nimport \"./BraidedInterface.sol\";\nimport \"openzeppelin-solidity/contracts/ownership/Superuser.sol\";\n\n\n// Smart contract for interchain linking\ncontract Braided is BraidedInterface, Superuser {\n\n  // identifies a specific chain that for which block/hashes are stored\n  struct Chain {\n    uint chainID;\n    address braidedContract; // must support BraidedInterface if present\n    bytes32 genesisBlockHash;\n    string description;\n  }\n  \n  // identifies a block by number and its hash\n  struct Block {\n    uint blockNumber;\n    bytes32 blockHash;\n  }\n\n  // error messages\n  string constant INVALID_BLOCK = \"invalid block\";\n  string constant INVALID_CHAIN = \"invalid chain\";\n  string constant NO_PERMISSION = \"no permission\";\n\n  // roles\n  mapping (uint => Roles.Role) private addBlockRoles;\n\n  Chain[] public chains;\n  mapping(uint => uint) internal chainIndexByChainID;\n  mapping(uint => Block[]) internal blocks;\n  mapping(uint => mapping(uint => uint)) internal blockByNumber;\n\n  constructor() public {\n    // Chain 0 is reserved\n    chains.push(Chain(0, 0, 0, \"\"));\n  }\n\n  // Add a chain\n  function addChain(uint chainID, address braidedContract, bytes32 genesisBlockHash, string description) external onlyOwnerOrSuperuser() {\n    // chain 0 is reserved\n    require(chainID != 0, INVALID_CHAIN);\n    // chainID must not already be in use\n    require(chainIndexByChainID[chainID] == 0, INVALID_CHAIN);\n    // Add the chain\n    chains.push(Chain(chainID, braidedContract, genesisBlockHash, description));\n    // make it possible to find the chain in the array by chainID\n    chainIndexByChainID[chainID] = chains.length - 1;\n  }\n\n  // make a method require a known chain\n  modifier validChainID(uint chainID) {\n    require(chainIndexByChainID[chainID] != 0, INVALID_CHAIN);\n    _;\n  }\n\n  // return total number of chains\n  function getChainCount() external view returns (uint) {\n    return chains.length - 1;\n  }\n\n  // get the Braided Contract deployed on the specified chain (if any).\n  // If a new instance of the Braided Contract is deployed, then that will\n  // have to be a new Chain ID.\n  function getBraidedContract(uint chainID) external view validChainID(chainID) returns (address) {\n    return chains[chainIndexByChainID[chainID]].braidedContract;\n  }\n\n  // get the genesis block hash for the specified chain\n  function getGenesisBlockHash(uint chainID) external view validChainID(chainID) returns (bytes32) {\n    return chains[chainIndexByChainID[chainID]].genesisBlockHash;\n  }\n\n  // get the description for the specified chain\n  function getChainDescription(uint chainID) external view validChainID(chainID) returns (string) {\n    return chains[chainIndexByChainID[chainID]].description;\n  }\n\n  // grant role to specified account\n  function addAgent(address agent, uint chainID) external onlyOwnerOrSuperuser() validChainID(chainID) {\n    addBlockRoles[chainID].add(agent);\n  }\n\n  // revoke role from specied account\n  function removeAgent(address agent, uint chainID) external onlyOwnerOrSuperuser() validChainID(chainID) {\n    addBlockRoles[chainID].remove(agent);\n  }\n\n  // add a block to the specified chain\n  function addBlock(uint chainID, uint blockNumber, bytes32 blockHash) external validChainID(chainID) {\n    // caller must have permission\n    require(addBlockRoles[chainID].has(msg.sender), NO_PERMISSION);\n    // the block numbers must increase\n    require(blocks[chainID].length == 0 || blocks[chainID][blocks[chainID].length - 1].blockNumber < blockNumber, INVALID_BLOCK);\n    // add the block\n    blocks[chainID].push(Block(blockNumber, blockHash));\n    // make it possible to look up the block by block number\n    blockByNumber[chainID][blockNumber] = blocks[chainID].length - 1;\n  }\n\n  // get the block hash for the block number on the specified chain\n  function getBlockHash(uint chainID, uint blockNumber) external view validChainID(chainID) returns (bytes32) {\n    Block memory theBlock = blocks[chainID][blockByNumber[chainID][blockNumber]];\n    // blockByNumber has 0 for blocks that don't exist, \n    // which could give the wrong block, so check.\n    require(theBlock.blockNumber == blockNumber, INVALID_BLOCK);\n    return theBlock.blockHash;\n  }\n\n  // get the highest block number recorded for the specified chain\n  function getHighestBlockNumber(uint chainID) external view validChainID(chainID) returns (uint) {\n    return blocks[chainID][blocks[chainID].length - 1].blockNumber;\n  }\n\n  // get the previous block number recorded to the one supplied for the\n  // specified chain (used to walk the chain backwards)\n  function getPreviousBlockNumber(uint chainID, uint blockNumber) external view validChainID(chainID) returns (uint) {\n    return blocks[chainID][blockByNumber[chainID][blockNumber] - 1].blockNumber;\n  }\n\n  // get the previous block recorded to the one supplied for the specified\n  // chain (used to walk the chain backwards)\n  function getPreviousBlock(uint chainID, uint blockNumber) external view validChainID(chainID)\n    returns (uint prevBlockNumber, bytes32 prevBlockHash) { // solium-disable-line lbrace\n    Block memory theBlock = blocks[chainID][blockByNumber[chainID][blockNumber] - 1];\n    prevBlockNumber = theBlock.blockNumber;\n    prevBlockHash = theBlock.blockHash;\n  }\n}\n",
  "sourcePath": "/home/cleduc/src/alfa/braided/contracts/Braided.sol",
  "compiler": {
    "name": "solc",
    "version": "0.4.24+commit.e67f0147.Emscripten.clang"
  },
  "schemaVersion": "2.0.1",
  "updatedAt": "2018-10-12T11:50:10.481Z"
}