{
  "contractName": "Braided",
  "abi": [
    {
      "constant": false,
      "inputs": [],
      "name": "renounceOwnership",
      "outputs": [],
      "payable": false,
      "stateMutability": "nonpayable",
      "type": "function",
      "signature": "0x715018a6"
    },
    {
      "constant": true,
      "inputs": [],
      "name": "owner",
      "outputs": [
        {
          "name": "",
          "type": "address"
        }
      ],
      "payable": false,
      "stateMutability": "view",
      "type": "function",
      "signature": "0x8da5cb5b"
    },
    {
      "constant": true,
      "inputs": [],
      "name": "isOwner",
      "outputs": [
        {
          "name": "",
          "type": "bool"
        }
      ],
      "payable": false,
      "stateMutability": "view",
      "type": "function",
      "signature": "0x8f32d59b"
    },
    {
      "constant": true,
      "inputs": [
        {
          "name": "",
          "type": "uint256"
        }
      ],
      "name": "strands",
      "outputs": [
        {
          "name": "strandID",
          "type": "uint256"
        },
        {
          "name": "creationBlockNumber",
          "type": "uint256"
        },
        {
          "name": "strandContract",
          "type": "address"
        },
        {
          "name": "genesisBlockHash",
          "type": "bytes32"
        },
        {
          "name": "description",
          "type": "string"
        }
      ],
      "payable": false,
      "stateMutability": "view",
      "type": "function",
      "signature": "0x951611b6"
    },
    {
      "constant": false,
      "inputs": [
        {
          "name": "newOwner",
          "type": "address"
        }
      ],
      "name": "transferOwnership",
      "outputs": [],
      "payable": false,
      "stateMutability": "nonpayable",
      "type": "function",
      "signature": "0xf2fde38b"
    },
    {
      "inputs": [],
      "payable": false,
      "stateMutability": "nonpayable",
      "type": "constructor",
      "signature": "constructor"
    },
    {
      "anonymous": false,
      "inputs": [
        {
          "indexed": true,
          "name": "strandID",
          "type": "uint256"
        },
        {
          "indexed": true,
          "name": "blockNumber",
          "type": "uint256"
        },
        {
          "indexed": false,
          "name": "blockHash",
          "type": "bytes32"
        }
      ],
      "name": "BlockAdded",
      "type": "event",
      "signature": "0x8a22ee899102a366ac8ad0495127319cb1ff2403cfae855f83a89cda1266674d"
    },
    {
      "anonymous": false,
      "inputs": [
        {
          "indexed": true,
          "name": "previousOwner",
          "type": "address"
        },
        {
          "indexed": true,
          "name": "newOwner",
          "type": "address"
        }
      ],
      "name": "OwnershipTransferred",
      "type": "event",
      "signature": "0x8be0079c531659141344cd1fd0a4f28419497f9722a3daafe3b4186f6b6457e0"
    },
    {
      "constant": true,
      "inputs": [],
      "name": "getCreationBlockNumber",
      "outputs": [
        {
          "name": "",
          "type": "uint256"
        }
      ],
      "payable": false,
      "stateMutability": "view",
      "type": "function",
      "signature": "0x61234a58"
    },
    {
      "constant": false,
      "inputs": [
        {
          "name": "strandID",
          "type": "uint256"
        },
        {
          "name": "strandContract",
          "type": "address"
        },
        {
          "name": "genesisBlockHash",
          "type": "bytes32"
        },
        {
          "name": "description",
          "type": "string"
        }
      ],
      "name": "addStrand",
      "outputs": [],
      "payable": false,
      "stateMutability": "nonpayable",
      "type": "function",
      "signature": "0xc8b2ccba"
    },
    {
      "constant": true,
      "inputs": [],
      "name": "getStrandCount",
      "outputs": [
        {
          "name": "",
          "type": "uint256"
        }
      ],
      "payable": false,
      "stateMutability": "view",
      "type": "function",
      "signature": "0x81263fed"
    },
    {
      "constant": true,
      "inputs": [
        {
          "name": "strandIndex",
          "type": "uint256"
        }
      ],
      "name": "getStrandID",
      "outputs": [
        {
          "name": "",
          "type": "uint256"
        }
      ],
      "payable": false,
      "stateMutability": "view",
      "type": "function",
      "signature": "0xc8f88114"
    },
    {
      "constant": true,
      "inputs": [
        {
          "name": "strandID",
          "type": "uint256"
        }
      ],
      "name": "getStrandContract",
      "outputs": [
        {
          "name": "",
          "type": "address"
        }
      ],
      "payable": false,
      "stateMutability": "view",
      "type": "function",
      "signature": "0xc3283d83"
    },
    {
      "constant": true,
      "inputs": [
        {
          "name": "strandID",
          "type": "uint256"
        }
      ],
      "name": "getStrandGenesisBlockHash",
      "outputs": [
        {
          "name": "",
          "type": "bytes32"
        }
      ],
      "payable": false,
      "stateMutability": "view",
      "type": "function",
      "signature": "0x5c0f9a3e"
    },
    {
      "constant": true,
      "inputs": [
        {
          "name": "strandID",
          "type": "uint256"
        }
      ],
      "name": "getStrandCreationBlockNumber",
      "outputs": [
        {
          "name": "",
          "type": "uint256"
        }
      ],
      "payable": false,
      "stateMutability": "view",
      "type": "function",
      "signature": "0x4fe4c11d"
    },
    {
      "constant": true,
      "inputs": [
        {
          "name": "strandID",
          "type": "uint256"
        }
      ],
      "name": "getStrandDescription",
      "outputs": [
        {
          "name": "",
          "type": "string"
        }
      ],
      "payable": false,
      "stateMutability": "view",
      "type": "function",
      "signature": "0x83eb72ac"
    },
    {
      "constant": false,
      "inputs": [
        {
          "name": "agent",
          "type": "address"
        },
        {
          "name": "strandID",
          "type": "uint256"
        }
      ],
      "name": "addAgent",
      "outputs": [],
      "payable": false,
      "stateMutability": "nonpayable",
      "type": "function",
      "signature": "0x596939f5"
    },
    {
      "constant": false,
      "inputs": [
        {
          "name": "agent",
          "type": "address"
        },
        {
          "name": "strandID",
          "type": "uint256"
        }
      ],
      "name": "removeAgent",
      "outputs": [],
      "payable": false,
      "stateMutability": "nonpayable",
      "type": "function",
      "signature": "0xf7eaec4f"
    },
    {
      "constant": false,
      "inputs": [
        {
          "name": "strandID",
          "type": "uint256"
        },
        {
          "name": "blockNumber",
          "type": "uint256"
        },
        {
          "name": "blockHash",
          "type": "bytes32"
        }
      ],
      "name": "addBlock",
      "outputs": [],
      "payable": false,
      "stateMutability": "nonpayable",
      "type": "function",
      "signature": "0xe9c6c176"
    },
    {
      "constant": true,
      "inputs": [
        {
          "name": "strandID",
          "type": "uint256"
        }
      ],
      "name": "getBlockCount",
      "outputs": [
        {
          "name": "",
          "type": "uint256"
        }
      ],
      "payable": false,
      "stateMutability": "view",
      "type": "function",
      "signature": "0xd0aeade7"
    },
    {
      "constant": true,
      "inputs": [
        {
          "name": "strandID",
          "type": "uint256"
        },
        {
          "name": "blockNumber",
          "type": "uint256"
        }
      ],
      "name": "getBlockHash",
      "outputs": [
        {
          "name": "",
          "type": "bytes32"
        }
      ],
      "payable": false,
      "stateMutability": "view",
      "type": "function",
      "signature": "0x0d7bf53c"
    },
    {
      "constant": true,
      "inputs": [
        {
          "name": "strandID",
          "type": "uint256"
        }
      ],
      "name": "getHighestBlockNumber",
      "outputs": [
        {
          "name": "",
          "type": "uint256"
        }
      ],
      "payable": false,
      "stateMutability": "view",
      "type": "function",
      "signature": "0x7eb82601"
    },
    {
      "constant": true,
      "inputs": [
        {
          "name": "strandID",
          "type": "uint256"
        }
      ],
      "name": "getLowestBlockNumber",
      "outputs": [
        {
          "name": "",
          "type": "uint256"
        }
      ],
      "payable": false,
      "stateMutability": "view",
      "type": "function",
      "signature": "0x3547fcf9"
    },
    {
      "constant": true,
      "inputs": [
        {
          "name": "strandID",
          "type": "uint256"
        },
        {
          "name": "blockNumber",
          "type": "uint256"
        }
      ],
      "name": "getPreviousBlockNumber",
      "outputs": [
        {
          "name": "",
          "type": "uint256"
        }
      ],
      "payable": false,
      "stateMutability": "view",
      "type": "function",
      "signature": "0x05c270e2"
    },
    {
      "constant": true,
      "inputs": [
        {
          "name": "strandID",
          "type": "uint256"
        },
        {
          "name": "blockNumber",
          "type": "uint256"
        }
      ],
      "name": "getPreviousBlock",
      "outputs": [
        {
          "name": "prevBlockNumber",
          "type": "uint256"
        },
        {
          "name": "prevBlockHash",
          "type": "bytes32"
        }
      ],
      "payable": false,
      "stateMutability": "view",
      "type": "function",
      "signature": "0x91a01414"
    }
  ],
  "bytecode": "0x60806040523480156200001157600080fd5b50600080546001600160a01b03191633178082556040516001600160a01b039190911691907f8be0079c531659141344cd1fd0a4f28419497f9722a3daafe3b4186f6b6457e0908290a36040805160a081018252600080825243602080840191825283850183815260608501848152865180840190975284875260808601968752600280546001810180835591909652865160059096027f405787fa12a823e0f2b7631cc41b3ba8828b3321ca811111fa75cd3aa3bb5ace810196875594517f405787fa12a823e0f2b7631cc41b3ba8828b3321ca811111fa75cd3aa3bb5acf86015591517f405787fa12a823e0f2b7631cc41b3ba8828b3321ca811111fa75cd3aa3bb5ad0850180546001600160a01b03929092166001600160a01b0319909216919091179055517f405787fa12a823e0f2b7631cc41b3ba8828b3321ca811111fa75cd3aa3bb5ad18401559451805162000195937f405787fa12a823e0f2b7631cc41b3ba8828b3321ca811111fa75cd3aa3bb5ad2019291909101906200019f565b5050505062000244565b828054600181600116156101000203166002900490600052602060002090601f016020900481019282601f10620001e257805160ff191683800117855562000212565b8280016001018555821562000212579182015b8281111562000212578251825591602001919060010190620001f5565b506200022092915062000224565b5090565b6200024191905b808211156200022057600081556001016200022b565b90565b61192280620002546000396000f3fe608060405234801561001057600080fd5b50600436106101425760003560e01c80638da5cb5b116100b8578063c8b2ccba1161007c578063c8b2ccba14610447578063c8f88114146104d3578063d0aeade7146104f0578063e9c6c1761461050d578063f2fde38b14610536578063f7eaec4f1461055c57610142565b80638da5cb5b146102eb5780638f32d59b1461030f57806391a014141461032b578063951611b614610367578063c3283d831461042a57610142565b80635c0f9a3e1161010a5780635c0f9a3e1461020757806361234a5814610224578063715018a61461022c5780637eb826011461023457806381263fed1461025157806383eb72ac1461025957610142565b806305c270e2146101475780630d7bf53c1461017c5780633547fcf91461019f5780634fe4c11d146101bc578063596939f5146101d9575b600080fd5b61016a6004803603604081101561015d57600080fd5b5080359060200135610588565b60408051918252519081900360200190f35b61016a6004803603604081101561019257600080fd5b5080359060200135610698565b61016a600480360360208110156101b557600080fd5b503561080c565b61016a600480360360208110156101d257600080fd5b50356108c4565b610205600480360360408110156101ef57600080fd5b506001600160a01b038135169060200135610981565b005b61016a6004803603602081101561021d57600080fd5b5035610a42565b61016a610aff565b610205610b27565b61016a6004803603602081101561024a57600080fd5b5035610b82565b61016a610c25565b6102766004803603602081101561026f57600080fd5b5035610c2f565b6040805160208082528351818301528351919283929083019185019080838360005b838110156102b0578181015183820152602001610298565b50505050905090810190601f1680156102dd5780820380516001836020036101000a031916815260200191505b509250505060405180910390f35b6102f3610d7f565b604080516001600160a01b039092168252519081900360200190f35b610317610d8e565b604080519115158252519081900360200190f35b61034e6004803603604081101561034157600080fd5b5080359060200135610d9f565b6040805192835260208301919091528051918290030190f35b6103846004803603602081101561037d57600080fd5b5035610ea4565b60405180868152602001858152602001846001600160a01b03166001600160a01b0316815260200183815260200180602001828103825283818151815260200191508051906020019080838360005b838110156103eb5781810151838201526020016103d3565b50505050905090810190601f1680156104185780820380516001836020036101000a031916815260200191505b50965050505050505060405180910390f35b6102f36004803603602081101561044057600080fd5b5035610f7c565b6102056004803603608081101561045d57600080fd5b8135916001600160a01b03602082013516916040820135919081019060808101606082013564010000000081111561049457600080fd5b8201836020820111156104a657600080fd5b803590602001918460018302840111640100000000831117156104c857600080fd5b509092509050611043565b61016a600480360360208110156104e957600080fd5b503561124d565b61016a6004803603602081101561050657600080fd5b50356112ef565b6102056004803603606081101561052357600080fd5b5080359060208101359060400135611388565b6102056004803603602081101561054c57600080fd5b50356001600160a01b0316611617565b6102056004803603604081101561057257600080fd5b506001600160a01b038135169060200135611634565b6000828152600360209081526040808320548151808301909252600e82526000805160206118d783398151915292820192909252849161064957604051600160e51b62461bcd0281526004018080602001828103825283818151815260200191508051906020019080838360005b8381101561060e5781810151838201526020016105f6565b50505050905090810190601f16801561063b5780820380516001836020036101000a031916815260200191505b509250505060405180910390fd5b5060008481526004602090815260408083206005835281842087855290925290912054815460001990910190811061067d57fe5b90600052602060002090600202016000015491505092915050565b6000828152600360209081526040808320548151808301909252600e82526000805160206118d783398151915292820192909252849161071c57604051600160e51b62461bcd02815260206004820181815283516024840152835190928392604490910191908501908083836000831561060e5781810151838201526020016105f6565b50610725611827565b600085815260046020908152604080832060058352818420888552909252909120548154811061075157fe5b9060005260206000209060020201604051806040016040529081600082015481526020016001820154815250509050838160000151146040518060400160405280600d8152602001600160981b6c696e76616c696420626c6f636b02815250906107ff57604051600160e51b62461bcd02815260206004820181815283516024840152835190928392604490910191908501908083836000831561060e5781810151838201526020016105f6565b5060200151949350505050565b6000818152600360209081526040808320548151808301909252600e82526000805160206118d783398151915292820192909252839161089057604051600160e51b62461bcd02815260206004820181815283516024840152835190928392604490910191908501908083836000831561060e5781810151838201526020016105f6565b50600083815260046020526040812080549091906108aa57fe5b906000526020600020906002020160000154915050919050565b6000818152600360209081526040808320548151808301909252600e82526000805160206118d783398151915292820192909252839161094857604051600160e51b62461bcd02815260206004820181815283516024840152835190928392604490910191908501908083836000831561060e5781810151838201526020016105f6565b5060008381526003602052604090205460028054909190811061096757fe5b906000526020600020906005020160010154915050919050565b610989610d8e565b61099257600080fd5b806003600082815260200190815260200160002054600014156040518060400160405280600e81526020016000805160206118d783398151915281525090610a1e57604051600160e51b62461bcd02815260206004820181815283516024840152835190928392604490910191908501908083836000831561060e5781810151838201526020016105f6565b506000828152600160205260409020610a3d908463ffffffff6116f016565b505050565b6000818152600360209081526040808320548151808301909252600e82526000805160206118d7833981519152928201929092528391610ac657604051600160e51b62461bcd02815260206004820181815283516024840152835190928392604490910191908501908083836000831561060e5781810151838201526020016105f6565b50600083815260036020526040902054600280549091908110610ae557fe5b906000526020600020906005020160030154915050919050565b60006002600081548110610b0f57fe5b90600052602060002090600502016001015490505b90565b610b2f610d8e565b610b3857600080fd5b600080546040516001600160a01b03909116907f8be0079c531659141344cd1fd0a4f28419497f9722a3daafe3b4186f6b6457e0908390a3600080546001600160a01b0319169055565b6000818152600360209081526040808320548151808301909252600e82526000805160206118d7833981519152928201929092528391610c0657604051600160e51b62461bcd02815260206004820181815283516024840152835190928392604490910191908501908083836000831561060e5781810151838201526020016105f6565b506000838152600460205260409020805460001981019081106108aa57fe5b6002546000190190565b6060816003600082815260200190815260200160002054600014156040518060400160405280600e81526020016000805160206118d783398151915281525090610cbd57604051600160e51b62461bcd02815260206004820181815283516024840152835190928392604490910191908501908083836000831561060e5781810151838201526020016105f6565b50600083815260036020526040902054600280549091908110610cdc57fe5b6000918252602091829020600460059092020101805460408051601f6002600019610100600187161502019094169390930492830185900485028101850190915281815292830182828015610d725780601f10610d4757610100808354040283529160200191610d72565b820191906000526020600020905b815481529060010190602001808311610d5557829003601f168201915b5050505050915050919050565b6000546001600160a01b031690565b6000546001600160a01b0316331490565b600080836003600082815260200190815260200160002054600014156040518060400160405280600e81526020016000805160206118d783398151915281525090610e2e57604051600160e51b62461bcd02815260206004820181815283516024840152835190928392604490910191908501908083836000831561060e5781810151838201526020016105f6565b50610e37611827565b600086815260046020908152604080832060058352818420898552909252909120548154600019909101908110610e6a57fe5b6000918252602091829020604080518082019091526002909202018054808352600190910154919092018190529097909650945050505050565b60028181548110610eb157fe5b600091825260209182902060059190910201805460018083015460028085015460038601546004870180546040805161010098831615989098026000190190911694909404601f81018a90048a0287018a0190945283865295985092966001600160a01b039091169592949293929190830182828015610f725780601f10610f4757610100808354040283529160200191610f72565b820191906000526020600020905b815481529060010190602001808311610f5557829003601f168201915b5050505050905085565b6000818152600360209081526040808320548151808301909252600e82526000805160206118d783398151915292820192909252839161100057604051600160e51b62461bcd02815260206004820181815283516024840152835190928392604490910191908501908083836000831561060e5781810151838201526020016105f6565b5060008381526003602052604090205460028054909190811061101f57fe5b60009182526020909120600590910201600201546001600160a01b03169392505050565b61104b610d8e565b61105457600080fd5b60408051808201909152600e81526000805160206118d78339815191526020820152856110c557604051600160e51b62461bcd02815260206004820181815283516024840152835190928392604490910191908501908083836000831561060e5781810151838201526020016105f6565b5060036000868152602001908152602001600020546000146040518060400160405280600e81526020016000805160206118d78339815191528152509061115057604051600160e51b62461bcd02815260206004820181815283516024840152835190928392604490910191908501908083836000831561060e5781810151838201526020016105f6565b5060026040518060a00160405280878152602001438152602001866001600160a01b0316815260200185815260200184848080601f0160208091040260200160405190810160405280939291908181526020018383808284376000920182905250939094525050835460018082018087559583526020928390208551600590930201918255848301519082015560408401516002820180546001600160a01b0319166001600160a01b03909216919091179055606084015160038201556080840151805191935061122892600485019291019061183e565b5050600254600097885260036020526040909720600019909701909655505050505050565b60025460408051808201909152600e81526000805160206118d7833981519152602082015260009183106112c557604051600160e51b62461bcd02815260206004820181815283516024840152835190928392604490910191908501908083836000831561060e5781810151838201526020016105f6565b50600282600101815481106112d657fe5b9060005260206000209060050201600001549050919050565b6000818152600360209081526040808320548151808301909252600e82526000805160206118d783398151915292820192909252839161137357604051600160e51b62461bcd02815260206004820181815283516024840152835190928392604490910191908501908083836000831561060e5781810151838201526020016105f6565b50505060009081526004602052604090205490565b826003600082815260200190815260200160002054600014156040518060400160405280600e81526020016000805160206118d78339815191528152509061141457604051600160e51b62461bcd02815260206004820181815283516024840152835190928392604490910191908501908083836000831561060e5781810151838201526020016105f6565b506000848152600160205260409020611433903363ffffffff61173c16565b6040518060400160405280600d81526020017f6e6f207065726d697373696f6e00000000000000000000000000000000000000815250906114b857604051600160e51b62461bcd02815260206004820181815283516024840152835190928392604490910191908501908083836000831561060e5781810151838201526020016105f6565b50600084815260046020526040902054158061150457506000848152600460205260409020805484919060001981019081106114f057fe5b906000526020600020906002020160000154105b6040518060400160405280600d8152602001600160981b6c696e76616c696420626c6f636b028152509061157c57604051600160e51b62461bcd02815260206004820181815283516024840152835190928392604490910191908501908083836000831561060e5781810151838201526020016105f6565b5060008481526004602090815260408083208151808301835287815280840187815282546001818101855584885286882093516002909202909301908155905191015587845254600583528184208785528352928190206000199390930190925581518481529151859287927f8a22ee899102a366ac8ad0495127319cb1ff2403cfae855f83a89cda1266674d92918290030190a350505050565b61161f610d8e565b61162857600080fd5b61163181611771565b50565b61163c610d8e565b61164557600080fd5b806003600082815260200190815260200160002054600014156040518060400160405280600e81526020016000805160206118d7833981519152815250906116d157604051600160e51b62461bcd02815260206004820181815283516024840152835190928392604490910191908501908083836000831561060e5781810151838201526020016105f6565b506000828152600160205260409020610a3d908463ffffffff6117df16565b6001600160a01b03811661170357600080fd5b61170d828261173c565b1561171757600080fd5b6001600160a01b0316600090815260209190915260409020805460ff19166001179055565b60006001600160a01b03821661175157600080fd5b506001600160a01b03166000908152602091909152604090205460ff1690565b6001600160a01b03811661178457600080fd5b600080546040516001600160a01b03808516939216917f8be0079c531659141344cd1fd0a4f28419497f9722a3daafe3b4186f6b6457e091a3600080546001600160a01b0319166001600160a01b0392909216919091179055565b6001600160a01b0381166117f257600080fd5b6117fc828261173c565b61180557600080fd5b6001600160a01b0316600090815260209190915260409020805460ff19169055565b604080518082019091526000808252602082015290565b828054600181600116156101000203166002900490600052602060002090601f016020900481019282601f1061187f57805160ff19168380011785556118ac565b828001600101855582156118ac579182015b828111156118ac578251825591602001919060010190611891565b506118b89291506118bc565b5090565b610b2491905b808211156118b857600081556001016118c256fe696e76616c696420737472616e64000000000000000000000000000000000000a165627a7a72305820ece4de231ccd62cdf80a30ec9c6e603c7345043288a7e62d3d4b3983a942d7f70029",
  "source": "pragma solidity ^0.5.7;\n\nimport \"./BraidedInterface.sol\";\nimport \"./BraidedInterfaceV2.sol\";\nimport \"openzeppelin-solidity/contracts/ownership/Ownable.sol\";\nimport \"openzeppelin-solidity/contracts/access/Roles.sol\";\n\n\n// Smart contract for interchain linking\n// Supports the original BraidedInterface deployed as well as additional\n// functionality implemented in V2\ncontract Braided is BraidedInterface, BraidedInterfaceV2, Ownable {\n\n  using Roles for Roles.Role;\n\n  // Strand identifies a specific chain + contract on which block/hashes are stored\n  struct Strand {\n    uint strandID;\n    uint creationBlockNumber;\n    address strandContract; // must support BraidedInterface if present\n    bytes32 genesisBlockHash;\n    string description;\n  }\n \n  // identifies a block by number and its hash\n  struct Block {\n    uint blockNumber;\n    bytes32 blockHash;\n  }\n\n  // error messages\n  string constant INVALID_BLOCK = \"invalid block\";\n  string constant INVALID_STRAND = \"invalid strand\";\n  string constant NO_PERMISSION = \"no permission\";\n\n  // roles\n  mapping (uint => Roles.Role) private addBlockRoles;\n\n  Strand[] public strands;\n  mapping(uint => uint) internal strandIndexByStrandID;\n  mapping(uint => Block[]) internal blocks;\n  mapping(uint => mapping(uint => uint)) internal blockByNumber;\n\n  event BlockAdded(uint indexed strandID, uint indexed blockNumber, bytes32 blockHash);\n\n  constructor() public {\n    // Creator is owner\n    // Strand 0 is reserved\n    // remember the block number when this was created\n    // useful for filtering\n    strands.push(Strand(0, block.number, address(0), 0, \"\"));\n  }\n\n  // get block number in which braid was created\n  function getCreationBlockNumber() external view returns (uint) {\n    return strands[0].creationBlockNumber;\n  }\n\n  // Add a strand\n  function addStrand(uint strandID, address strandContract, bytes32 genesisBlockHash, string calldata description) external onlyOwner() {\n    // strand 0 is reserved\n    require(strandID != 0, INVALID_STRAND);\n    // strandID must not already be in use\n    require(strandIndexByStrandID[strandID] == 0, INVALID_STRAND);\n    // Add the strand\n    strands.push(Strand(strandID, block.number, strandContract, genesisBlockHash, description));\n    // make it possible to find the strand in the array by strandID\n    strandIndexByStrandID[strandID] = strands.length - 1;\n  }\n\n  // make a method require a known strand\n  modifier validStrandID(uint strandID) {\n    require(strandIndexByStrandID[strandID] != 0, INVALID_STRAND);\n    _;\n  }\n\n  // return total number of strands\n  function getStrandCount() external view returns (uint) {\n    return strands.length - 1;\n  }\n\n  // retrieve strandID from the zero-based index\n  function getStrandID(uint strandIndex) external view returns(uint) {\n    require(strandIndex < strands.length, INVALID_STRAND);\n    // the 0 in the index is reserved for \"invalid\"\n    return strands[strandIndex + 1].strandID;\n  }\n\n  // get the Braided Contract deployed on the specified strand (if any).\n  // If a new instance of the Braided Contract is deployed, then that will\n  // have to be a new Strand ID.\n  function getStrandContract(uint strandID) external view validStrandID(strandID) returns (address) {\n    return strands[strandIndexByStrandID[strandID]].strandContract;\n  }\n\n  // get the genesis block hash for the specified strand\n  function getStrandGenesisBlockHash(uint strandID) external view validStrandID(strandID) returns (bytes32) {\n    return strands[strandIndexByStrandID[strandID]].genesisBlockHash;\n  }\n\n  // get the description for the specified strand\n  function getStrandCreationBlockNumber(uint strandID) external view validStrandID(strandID) returns (uint) {\n    return strands[strandIndexByStrandID[strandID]].creationBlockNumber;\n  }\n\n  // get the description for the specified strand\n  function getStrandDescription(uint strandID) external view validStrandID(strandID) returns (string memory) {\n    return strands[strandIndexByStrandID[strandID]].description;\n  }\n\n  // grant role to specified account\n  function addAgent(address agent, uint strandID) external onlyOwner() validStrandID(strandID) {\n    addBlockRoles[strandID].add(agent);\n  }\n\n  // revoke role from specied account\n  function removeAgent(address agent, uint strandID) external onlyOwner() validStrandID(strandID) {\n    addBlockRoles[strandID].remove(agent);\n  }\n\n  // add a block to the specified strand\n  function addBlock(uint strandID, uint blockNumber, bytes32 blockHash) external validStrandID(strandID) {\n    // caller must have permission\n    require(addBlockRoles[strandID].has(msg.sender), NO_PERMISSION);\n    // the block numbers must increase\n    require(blocks[strandID].length == 0 || blocks[strandID][blocks[strandID].length - 1].blockNumber < blockNumber, INVALID_BLOCK);\n    // add the block\n    blocks[strandID].push(Block(blockNumber, blockHash));\n    // make it possible to look up the block by block number\n    blockByNumber[strandID][blockNumber] = blocks[strandID].length - 1;\n    // add the event for notification\n    emit BlockAdded(strandID, blockNumber, blockHash);\n  }\n\n  // get the number of block/hashes recorded on the specified strand\n  function getBlockCount(uint strandID) external view validStrandID(strandID) returns (uint) {\n    return blocks[strandID].length;\n  }\n\n  // get the block hash for the block number on the specified strand\n  function getBlockHash(uint strandID, uint blockNumber) external view validStrandID(strandID) returns (bytes32) {\n    Block memory theBlock = blocks[strandID][blockByNumber[strandID][blockNumber]];\n    // blockByNumber has 0 for blocks that don't exist,\n    // which could give the wrong block, so check.\n    require(theBlock.blockNumber == blockNumber, INVALID_BLOCK);\n    return theBlock.blockHash;\n  }\n\n  // get the highest block number recorded for the specified strand\n  function getHighestBlockNumber(uint strandID) external view validStrandID(strandID) returns (uint) {\n    return blocks[strandID][blocks[strandID].length - 1].blockNumber;\n  }\n\n  // get the lowest block number recorded for the specified strand\n  function getLowestBlockNumber(uint strandID) external view validStrandID(strandID) returns (uint) {\n    return blocks[strandID][0].blockNumber;\n  }\n\n  // get the previous block number recorded to the one supplied for the\n  // specified strand (used to walk the strand backwards)\n  function getPreviousBlockNumber(uint strandID, uint blockNumber) external view validStrandID(strandID) returns (uint) {\n    return blocks[strandID][blockByNumber[strandID][blockNumber] - 1].blockNumber;\n  }\n\n  // get the previous block recorded to the one supplied for the specified\n  // strand (used to walk the strand backwards)\n  function getPreviousBlock(uint strandID, uint blockNumber) external view validStrandID(strandID)\n    returns (uint prevBlockNumber, bytes32 prevBlockHash) { // solium-disable-line lbrace\n    Block memory theBlock = blocks[strandID][blockByNumber[strandID][blockNumber] - 1];\n    prevBlockNumber = theBlock.blockNumber;\n    prevBlockHash = theBlock.blockHash;\n  }\n}\n",
  "sourcePath": "/home/cleduc/src/alfa/braided/contracts/Braided.sol",
  "compiler": {
    "name": "solc",
    "version": "0.5.7+commit.6da8b019.Emscripten.clang"
  },
  "schemaVersion": "3.0.6",
  "updatedAt": "2019-04-11T01:29:28.100Z",
  "devdoc": {
    "methods": {
      "isOwner()": {
        "return": "true if `msg.sender` is the owner of the contract."
      },
      "owner()": {
        "return": "the address of the owner."
      },
      "renounceOwnership()": {
        "details": "Allows the current owner to relinquish control of the contract. It will not be possible to call the functions with the `onlyOwner` modifier anymore."
      },
      "transferOwnership(address)": {
        "details": "Allows the current owner to transfer control of the contract to a newOwner.",
        "params": {
          "newOwner": "The address to transfer ownership to."
        }
      }
    }
  },
  "userdoc": {
    "methods": {
      "renounceOwnership()": {
        "notice": "Renouncing ownership will leave the contract without an owner, thereby removing any functionality that is only available to the owner."
      }
    }
  }
}