{
  "contractName": "Braided",
  "abi": [
    {
      "constant": true,
      "inputs": [
        {
          "name": "_operator",
          "type": "address"
        },
        {
          "name": "_role",
          "type": "string"
        }
      ],
      "name": "checkRole",
      "outputs": [],
      "payable": false,
      "stateMutability": "view",
      "type": "function"
    },
    {
      "constant": true,
      "inputs": [
        {
          "name": "_operator",
          "type": "address"
        },
        {
          "name": "_role",
          "type": "string"
        }
      ],
      "name": "hasRole",
      "outputs": [
        {
          "name": "",
          "type": "bool"
        }
      ],
      "payable": false,
      "stateMutability": "view",
      "type": "function"
    },
    {
      "constant": false,
      "inputs": [
        {
          "name": "_newSuperuser",
          "type": "address"
        }
      ],
      "name": "transferSuperuser",
      "outputs": [],
      "payable": false,
      "stateMutability": "nonpayable",
      "type": "function"
    },
    {
      "constant": false,
      "inputs": [],
      "name": "renounceOwnership",
      "outputs": [],
      "payable": false,
      "stateMutability": "nonpayable",
      "type": "function"
    },
    {
      "constant": true,
      "inputs": [],
      "name": "owner",
      "outputs": [
        {
          "name": "",
          "type": "address"
        }
      ],
      "payable": false,
      "stateMutability": "view",
      "type": "function"
    },
    {
      "constant": true,
      "inputs": [
        {
          "name": "",
          "type": "uint256"
        }
      ],
      "name": "strands",
      "outputs": [
        {
          "name": "strandID",
          "type": "uint256"
        },
        {
          "name": "strandContract",
          "type": "address"
        },
        {
          "name": "genesisBlockHash",
          "type": "bytes32"
        },
        {
          "name": "description",
          "type": "string"
        }
      ],
      "payable": false,
      "stateMutability": "view",
      "type": "function"
    },
    {
      "constant": true,
      "inputs": [
        {
          "name": "_addr",
          "type": "address"
        }
      ],
      "name": "isSuperuser",
      "outputs": [
        {
          "name": "",
          "type": "bool"
        }
      ],
      "payable": false,
      "stateMutability": "view",
      "type": "function"
    },
    {
      "constant": true,
      "inputs": [],
      "name": "ROLE_SUPERUSER",
      "outputs": [
        {
          "name": "",
          "type": "string"
        }
      ],
      "payable": false,
      "stateMutability": "view",
      "type": "function"
    },
    {
      "constant": false,
      "inputs": [
        {
          "name": "_newOwner",
          "type": "address"
        }
      ],
      "name": "transferOwnership",
      "outputs": [],
      "payable": false,
      "stateMutability": "nonpayable",
      "type": "function"
    },
    {
      "inputs": [],
      "payable": false,
      "stateMutability": "nonpayable",
      "type": "constructor"
    },
    {
      "anonymous": false,
      "inputs": [
        {
          "indexed": true,
          "name": "strandID",
          "type": "uint256"
        },
        {
          "indexed": true,
          "name": "blockNumber",
          "type": "uint256"
        },
        {
          "indexed": false,
          "name": "blockHash",
          "type": "bytes32"
        }
      ],
      "name": "BlockAdded",
      "type": "event"
    },
    {
      "anonymous": false,
      "inputs": [
        {
          "indexed": true,
          "name": "operator",
          "type": "address"
        },
        {
          "indexed": false,
          "name": "role",
          "type": "string"
        }
      ],
      "name": "RoleAdded",
      "type": "event"
    },
    {
      "anonymous": false,
      "inputs": [
        {
          "indexed": true,
          "name": "operator",
          "type": "address"
        },
        {
          "indexed": false,
          "name": "role",
          "type": "string"
        }
      ],
      "name": "RoleRemoved",
      "type": "event"
    },
    {
      "anonymous": false,
      "inputs": [
        {
          "indexed": true,
          "name": "previousOwner",
          "type": "address"
        }
      ],
      "name": "OwnershipRenounced",
      "type": "event"
    },
    {
      "anonymous": false,
      "inputs": [
        {
          "indexed": true,
          "name": "previousOwner",
          "type": "address"
        },
        {
          "indexed": true,
          "name": "newOwner",
          "type": "address"
        }
      ],
      "name": "OwnershipTransferred",
      "type": "event"
    },
    {
      "constant": false,
      "inputs": [
        {
          "name": "strandID",
          "type": "uint256"
        },
        {
          "name": "strandContract",
          "type": "address"
        },
        {
          "name": "genesisBlockHash",
          "type": "bytes32"
        },
        {
          "name": "description",
          "type": "string"
        }
      ],
      "name": "addStrand",
      "outputs": [],
      "payable": false,
      "stateMutability": "nonpayable",
      "type": "function"
    },
    {
      "constant": true,
      "inputs": [],
      "name": "getStrandCount",
      "outputs": [
        {
          "name": "",
          "type": "uint256"
        }
      ],
      "payable": false,
      "stateMutability": "view",
      "type": "function"
    },
    {
      "constant": true,
      "inputs": [
        {
          "name": "strandID",
          "type": "uint256"
        }
      ],
      "name": "getStrandContract",
      "outputs": [
        {
          "name": "",
          "type": "address"
        }
      ],
      "payable": false,
      "stateMutability": "view",
      "type": "function"
    },
    {
      "constant": true,
      "inputs": [
        {
          "name": "strandID",
          "type": "uint256"
        }
      ],
      "name": "getStrandGenesisBlockHash",
      "outputs": [
        {
          "name": "",
          "type": "bytes32"
        }
      ],
      "payable": false,
      "stateMutability": "view",
      "type": "function"
    },
    {
      "constant": true,
      "inputs": [
        {
          "name": "strandID",
          "type": "uint256"
        }
      ],
      "name": "getStrandDescription",
      "outputs": [
        {
          "name": "",
          "type": "string"
        }
      ],
      "payable": false,
      "stateMutability": "view",
      "type": "function"
    },
    {
      "constant": false,
      "inputs": [
        {
          "name": "agent",
          "type": "address"
        },
        {
          "name": "strandID",
          "type": "uint256"
        }
      ],
      "name": "addAgent",
      "outputs": [],
      "payable": false,
      "stateMutability": "nonpayable",
      "type": "function"
    },
    {
      "constant": false,
      "inputs": [
        {
          "name": "agent",
          "type": "address"
        },
        {
          "name": "strandID",
          "type": "uint256"
        }
      ],
      "name": "removeAgent",
      "outputs": [],
      "payable": false,
      "stateMutability": "nonpayable",
      "type": "function"
    },
    {
      "constant": false,
      "inputs": [
        {
          "name": "strandID",
          "type": "uint256"
        },
        {
          "name": "blockNumber",
          "type": "uint256"
        },
        {
          "name": "blockHash",
          "type": "bytes32"
        }
      ],
      "name": "addBlock",
      "outputs": [],
      "payable": false,
      "stateMutability": "nonpayable",
      "type": "function"
    },
    {
      "constant": true,
      "inputs": [
        {
          "name": "strandID",
          "type": "uint256"
        },
        {
          "name": "blockNumber",
          "type": "uint256"
        }
      ],
      "name": "getBlockHash",
      "outputs": [
        {
          "name": "",
          "type": "bytes32"
        }
      ],
      "payable": false,
      "stateMutability": "view",
      "type": "function"
    },
    {
      "constant": true,
      "inputs": [
        {
          "name": "strandID",
          "type": "uint256"
        }
      ],
      "name": "getHighestBlockNumber",
      "outputs": [
        {
          "name": "",
          "type": "uint256"
        }
      ],
      "payable": false,
      "stateMutability": "view",
      "type": "function"
    },
    {
      "constant": true,
      "inputs": [
        {
          "name": "strandID",
          "type": "uint256"
        },
        {
          "name": "blockNumber",
          "type": "uint256"
        }
      ],
      "name": "getPreviousBlockNumber",
      "outputs": [
        {
          "name": "",
          "type": "uint256"
        }
      ],
      "payable": false,
      "stateMutability": "view",
      "type": "function"
    },
    {
      "constant": true,
      "inputs": [
        {
          "name": "strandID",
          "type": "uint256"
        },
        {
          "name": "blockNumber",
          "type": "uint256"
        }
      ],
      "name": "getPreviousBlock",
      "outputs": [
        {
          "name": "prevBlockNumber",
          "type": "uint256"
        },
        {
          "name": "prevBlockHash",
          "type": "bytes32"
        }
      ],
      "payable": false,
      "stateMutability": "view",
      "type": "function"
    }
  ],
  "bytecode": "0x60806040523480156200001157600080fd5b5060008054600160a060020a0319163390811790915560408051808201909152600981527f7375706572757365720000000000000000000000000000000000000000000000602082015262000070919064010000000062000187810204565b604080516080810182526000808252602080830182815283850183815285518084019096528386526060850195865260038054600181018083559190955285517fc2575a0e9e593c00f959f8c92f12db2869c3395a3b0502d05e2516446f71f85b600490960295860190815592517fc2575a0e9e593c00f959f8c92f12db2869c3395a3b0502d05e2516446f71f85c86018054600160a060020a031916600160a060020a0390921691909117905590517fc2575a0e9e593c00f959f8c92f12db2869c3395a3b0502d05e2516446f71f85d8501559451805191936200017d937fc2575a0e9e593c00f959f8c92f12db2869c3395a3b0502d05e2516446f71f85e90910192910190620002d2565b5050505062000377565b62000203826001836040518082805190602001908083835b60208310620001c05780518252601f1990920191602091820191016200019f565b51815160209384036101000a6000190180199092169116179052920194855250604051938490030190922092915050640100000000620002ad8102620018871704565b81600160a060020a03167fbfec83d64eaa953f2708271a023ab9ee82057f8f3578d548c1a4ba0b5b700489826040518080602001828103825283818151815260200191508051906020019080838360005b838110156200026e57818101518382015260200162000254565b50505050905090810190601f1680156200029c5780820380516001836020036101000a031916815260200191505b509250505060405180910390a25050565b600160a060020a0316600090815260209190915260409020805460ff19166001179055565b828054600181600116156101000203166002900490600052602060002090601f016020900481019282601f106200031557805160ff191683800117855562000345565b8280016001018555821562000345579182015b828111156200034557825182559160200191906001019062000328565b506200035392915062000357565b5090565b6200037491905b808211156200035357600081556001016200035e565b90565b611a6680620003876000396000f30060806040526004361061011c5763ffffffff7c010000000000000000000000000000000000000000000000000000000060003504166305c270e281146101215780630988ca8c1461014e5780630d7bf53c146101b7578063217fe6c6146101d257806357c393fa1461024d578063596939f51461026e5780635c0f9a3e14610292578063715018a6146102aa5780637eb82601146102bf57806381263fed146102d757806383eb72ac146102ec5780638da5cb5b1461037957806391a01414146103aa578063951611b6146103de578063bceee05e1461049d578063c3283d83146104be578063c8b2ccba146104d6578063e9c6c1761461050b578063ebb4f48414610529578063f2fde38b1461053e578063f7eaec4f1461055f575b600080fd5b34801561012d57600080fd5b5061013c600435602435610583565b60408051918252519081900360200190f35b34801561015a57600080fd5b5060408051602060046024803582810135601f81018590048502860185019096528585526101b5958335600160a060020a03169536956044949193909101919081908401838280828437509497506106959650505050505050565b005b3480156101c357600080fd5b5061013c600435602435610703565b3480156101de57600080fd5b5060408051602060046024803582810135601f8101859004850286018501909652858552610239958335600160a060020a03169536956044949193909101919081908401838280828437509497506108849650505050505050565b604080519115158252519081900360200190f35b34801561025957600080fd5b506101b5600160a060020a03600435166108f7565b34801561027a57600080fd5b506101b5600160a060020a0360043516602435610996565b34801561029e57600080fd5b5061013c600435610a6b565b3480156102b657600080fd5b506101b5610b2b565b3480156102cb57600080fd5b5061013c600435610b97565b3480156102e357600080fd5b5061013c610c57565b3480156102f857600080fd5b50610304600435610c62565b6040805160208082528351818301528351919283929083019185019080838360005b8381101561033e578181015183820152602001610326565b50505050905090810190601f16801561036b5780820380516001836020036101000a031916815260200191505b509250505060405180910390f35b34801561038557600080fd5b5061038e610daf565b60408051600160a060020a039092168252519081900360200190f35b3480156103b657600080fd5b506103c5600435602435610dbe565b6040805192835260208301919091528051918290030190f35b3480156103ea57600080fd5b506103f6600435610ec0565b6040518085815260200184600160a060020a0316600160a060020a03168152602001836000191660001916815260200180602001828103825283818151815260200191508051906020019080838360005b8381101561045f578181015183820152602001610447565b50505050905090810190601f16801561048c5780820380516001836020036101000a031916815260200191505b509550505050505060405180910390f35b3480156104a957600080fd5b50610239600160a060020a0360043516610f8f565b3480156104ca57600080fd5b5061038e600435610fc4565b3480156104e257600080fd5b506101b5600480359060248035600160a060020a0316916044359160643590810191013561108e565b34801561051757600080fd5b506101b56004356024356044356112af565b34801561053557600080fd5b5061030461154a565b34801561054a57600080fd5b506101b5600160a060020a036004351661156f565b34801561056b57600080fd5b506101b5600160a060020a03600435166024356115a0565b6000828152600460209081526040808320548151808301909252600e8252600080516020611a1b83398151915292820192909252849115156106465760405160e560020a62461bcd0281526004018080602001828103825283818151815260200191508051906020019080838360005b8381101561060b5781810151838201526020016105f3565b50505050905090810190601f1680156106385780820380516001836020036101000a031916815260200191505b509250505060405180910390fd5b5060008481526005602090815260408083206006835281842087855290925290912054815460001990910190811061067a57fe5b90600052602060002090600202016000015491505092915050565b6106ff826001836040518082805190602001908083835b602083106106cb5780518252601f1990920191602091820191016106ac565b51815160209384036101000a6000190180199092169116179052920194855250604051938490030190922092915050611670565b5050565b600061070d61194b565b600084815260046020908152604091829020548251808401909352600e8352600080516020611a1b8339815191529183019190915285919015156107965760405160e560020a62461bcd0281526004018080602001828103825283818151815260200191508051906020019080838360008381101561060b5781810151838201526020016105f3565b5060008581526005602090815260408083206006835281842088855290925290912054815481106107c357fe5b600091825260209182902060408051808201825260029093029091018054808452600190910154838501528151808301909252600d82527f696e76616c696420626c6f636b00000000000000000000000000000000000000938201939093529093509085146108775760405160e560020a62461bcd0281526004018080602001828103825283818151815260200191508051906020019080838360008381101561060b5781810151838201526020016105f3565b5050602001519392505050565b60006108f0836001846040518082805190602001908083835b602083106108bc5780518252601f19909201916020918201910161089d565b51815160209384036101000a6000190180199092169116179052920194855250604051938490030190922092915050611685565b9392505050565b610924336040805190810160405280600981526020016000805160206119fb833981519152815250610695565b600160a060020a038116151561093957600080fd5b610966336040805190810160405280600981526020016000805160206119fb8339815191528152506116a4565b610993816040805190810160405280600981526020016000805160206119fb8339815191528152506117b5565b50565b600054600160a060020a03163314806109b357506109b333610f8f565b15156109be57600080fd5b600081815260046020908152604091829020548251808401909352600e8352600080516020611a1b833981519152918301919091528291901515610a475760405160e560020a62461bcd0281526004018080602001828103825283818151815260200191508051906020019080838360008381101561060b5781810151838201526020016105f3565b506000828152600260205260409020610a66908463ffffffff61188716565b505050565b6000818152600460209081526040808320548151808301909252600e8252600080516020611a1b8339815191529282019290925283911515610af25760405160e560020a62461bcd0281526004018080602001828103825283818151815260200191508051906020019080838360008381101561060b5781810151838201526020016105f3565b50600083815260046020526040902054600380549091908110610b1157fe5b906000526020600020906004020160020154915050919050565b600054600160a060020a03163314610b4257600080fd5b60008054604051600160a060020a03909116917ff8df31144d9c2f0f6b59d69b8b98abd5459d07f2742c4df920b25aae33c6482091a26000805473ffffffffffffffffffffffffffffffffffffffff19169055565b6000818152600460209081526040808320548151808301909252600e8252600080516020611a1b8339815191529282019290925283911515610c1e5760405160e560020a62461bcd0281526004018080602001828103825283818151815260200191508051906020019080838360008381101561060b5781810151838201526020016105f3565b50600083815260056020526040902080546000198101908110610c3d57fe5b906000526020600020906002020160000154915050919050565b600354600019015b90565b600081815260046020908152604091829020548251808401909352600e8352600080516020611a1b8339815191529183019190915260609183911515610ced5760405160e560020a62461bcd0281526004018080602001828103825283818151815260200191508051906020019080838360008381101561060b5781810151838201526020016105f3565b50600083815260046020526040902054600380549091908110610d0c57fe5b6000918252602091829020600360049092020101805460408051601f6002600019610100600187161502019094169390930492830185900485028101850190915281815292830182828015610da25780601f10610d7757610100808354040283529160200191610da2565b820191906000526020600020905b815481529060010190602001808311610d8557829003601f168201915b5050505050915050919050565b600054600160a060020a031681565b600080610dc961194b565b600085815260046020908152604091829020548251808401909352600e8352600080516020611a1b833981519152918301919091528691901515610e525760405160e560020a62461bcd0281526004018080602001828103825283818151815260200191508051906020019080838360008381101561060b5781810151838201526020016105f3565b50600086815260056020908152604080832060068352818420898552909252909120548154600019909101908110610e8657fe5b6000918252602091829020604080518082019091526002909202018054808352600190910154919092018190529097909650945050505050565b6003805482908110610ece57fe5b60009182526020918290206004919091020180546001808301546002808501546003860180546040805161010097831615979097026000190190911693909304601f8101899004890286018901909352828552949750600160a060020a039092169591949391830182828015610f855780601f10610f5a57610100808354040283529160200191610f85565b820191906000526020600020905b815481529060010190602001808311610f6857829003601f168201915b5050505050905084565b6000610fbe826040805190810160405280600981526020016000805160206119fb833981519152815250610884565b92915050565b6000818152600460209081526040808320548151808301909252600e8252600080516020611a1b833981519152928201929092528391151561104b5760405160e560020a62461bcd0281526004018080602001828103825283818151815260200191508051906020019080838360008381101561060b5781810151838201526020016105f3565b5060008381526004602052604090205460038054909190811061106a57fe5b6000918252602090912060049091020160010154600160a060020a03169392505050565b600054600160a060020a03163314806110ab57506110ab33610f8f565b15156110b657600080fd5b60408051808201909152600e8152600080516020611a1b833981519152602082015285151561112a5760405160e560020a62461bcd0281526004018080602001828103825283818151815260200191508051906020019080838360008381101561060b5781810151838201526020016105f3565b50600085815260046020908152604091829020548251808401909352600e8352600080516020611a1b83398151915291830191909152156111b05760405160e560020a62461bcd0281526004018080602001828103825283818151815260200191508051906020019080838360008381101561060b5781810151838201526020016105f3565b50600360806040519081016040528087815260200186600160a060020a031681526020018560001916815260200184848080601f016020809104026020016040519081016040528093929190818152602001838380828437505050929093525050825460018082018086556000958652602095869020855160049094020192835584860151918301805473ffffffffffffffffffffffffffffffffffffffff1916600160a060020a03909316929092179091556040840151600283015560608401518051919592935061128a926003850192910190611962565b5050600354600097885260046020526040909720600019909701909655505050505050565b600083815260046020908152604091829020548251808401909352600e8352600080516020611a1b8339815191529183019190915284919015156113385760405160e560020a62461bcd0281526004018080602001828103825283818151815260200191508051906020019080838360008381101561060b5781810151838201526020016105f3565b506000848152600260205260409020611357903363ffffffff61168516565b60408051808201909152600d81527f6e6f207065726d697373696f6e0000000000000000000000000000000000000060208201529015156113dd5760405160e560020a62461bcd0281526004018080602001828103825283818151815260200191508051906020019080838360008381101561060b5781810151838201526020016105f3565b506000848152600560205260409020541580611429575060008481526005602052604090208054849190600019810190811061141557fe5b906000526020600020906002020160000154105b60408051808201909152600d81527f696e76616c696420626c6f636b0000000000000000000000000000000000000060208201529015156114af5760405160e560020a62461bcd0281526004018080602001828103825283818151815260200191508051906020019080838360008381101561060b5781810151838201526020016105f3565b5060008481526005602090815260408083208151808301835287815280840187815282546001818101855584885286882093516002909202909301908155905191015587845254600683528184208785528352928190206000199390930190925581518481529151859287927f8a22ee899102a366ac8ad0495127319cb1ff2403cfae855f83a89cda1266674d92918290030190a350505050565b60408051808201909152600981526000805160206119fb833981519152602082015281565b600054600160a060020a031633148061158c575061158c33610f8f565b151561159757600080fd5b610993816118ac565b600054600160a060020a03163314806115bd57506115bd33610f8f565b15156115c857600080fd5b600081815260046020908152604091829020548251808401909352600e8352600080516020611a1b8339815191529183019190915282919015156116515760405160e560020a62461bcd0281526004018080602001828103825283818151815260200191508051906020019080838360008381101561060b5781810151838201526020016105f3565b506000828152600260205260409020610a66908463ffffffff61192916565b61167a8282611685565b15156106ff57600080fd5b600160a060020a03166000908152602091909152604090205460ff1690565b61170e826001836040518082805190602001908083835b602083106116da5780518252601f1990920191602091820191016116bb565b51815160209384036101000a6000190180199092169116179052920194855250604051938490030190922092915050611929565b81600160a060020a03167fd211483f91fc6eff862467f8de606587a30c8fc9981056f051b897a418df803a826040518080602001828103825283818151815260200191508051906020019080838360005b8381101561177757818101518382015260200161175f565b50505050905090810190601f1680156117a45780820380516001836020036101000a031916815260200191505b509250505060405180910390a25050565b61181f826001836040518082805190602001908083835b602083106117eb5780518252601f1990920191602091820191016117cc565b51815160209384036101000a6000190180199092169116179052920194855250604051938490030190922092915050611887565b81600160a060020a03167fbfec83d64eaa953f2708271a023ab9ee82057f8f3578d548c1a4ba0b5b700489826040518080602001828103825283818151815260200191508051906020019080838360008381101561177757818101518382015260200161175f565b600160a060020a0316600090815260209190915260409020805460ff19166001179055565b600160a060020a03811615156118c157600080fd5b60008054604051600160a060020a03808516939216917f8be0079c531659141344cd1fd0a4f28419497f9722a3daafe3b4186f6b6457e091a36000805473ffffffffffffffffffffffffffffffffffffffff1916600160a060020a0392909216919091179055565b600160a060020a0316600090815260209190915260409020805460ff19169055565b604080518082019091526000808252602082015290565b828054600181600116156101000203166002900490600052602060002090601f016020900481019282601f106119a357805160ff19168380011785556119d0565b828001600101855582156119d0579182015b828111156119d05782518255916020019190600101906119b5565b506119dc9291506119e0565b5090565b610c5f91905b808211156119dc57600081556001016119e656007375706572757365720000000000000000000000000000000000000000000000696e76616c696420737472616e64000000000000000000000000000000000000a165627a7a72305820b2364bfe23b8953300717d484aefd33490415e5d25d03322a1013a1bc71f9a250029",
  "source": "pragma solidity ^0.4.24;\n\nimport \"./BraidedInterface.sol\";\nimport \"openzeppelin-solidity/contracts/ownership/Superuser.sol\";\n\n\n// Smart contract for interchain linking\ncontract Braided is BraidedInterface, Superuser {\n\n  // Strand identifies a specific chain + contract on which block/hashes are stored\n  struct Strand {\n    uint strandID;\n    address strandContract; // must support BraidedInterface if present\n    bytes32 genesisBlockHash;\n    string description;\n  }\n  \n  // identifies a block by number and its hash\n  struct Block {\n    uint blockNumber;\n    bytes32 blockHash;\n  }\n\n  // error messages\n  string constant INVALID_BLOCK = \"invalid block\";\n  string constant INVALID_STRAND = \"invalid strand\";\n  string constant NO_PERMISSION = \"no permission\";\n\n  // roles\n  mapping (uint => Roles.Role) private addBlockRoles;\n\n  Strand[] public strands;\n  mapping(uint => uint) internal strandIndexByStrandID;\n  mapping(uint => Block[]) internal blocks;\n  mapping(uint => mapping(uint => uint)) internal blockByNumber;\n\n  event BlockAdded(uint indexed strandID, uint indexed blockNumber, bytes32 blockHash);\n\n  constructor() public {\n    // Strand 0 is reserved\n    strands.push(Strand(0, 0, 0, \"\"));\n  }\n\n  // Add a strand\n  function addStrand(uint strandID, address strandContract, bytes32 genesisBlockHash, string description) external onlyOwnerOrSuperuser() {\n    // strand 0 is reserved\n    require(strandID != 0, INVALID_STRAND);\n    // strandID must not already be in use\n    require(strandIndexByStrandID[strandID] == 0, INVALID_STRAND);\n    // Add the strand\n    strands.push(Strand(strandID, strandContract, genesisBlockHash, description));\n    // make it possible to find the strand in the array by strandID\n    strandIndexByStrandID[strandID] = strands.length - 1;\n  }\n\n  // make a method require a known strand\n  modifier validStrandID(uint strandID) {\n    require(strandIndexByStrandID[strandID] != 0, INVALID_STRAND);\n    _;\n  }\n\n  // return total number of strands\n  function getStrandCount() external view returns (uint) {\n    return strands.length - 1;\n  }\n\n  // get the Braided Contract deployed on the specified strand (if any).\n  // If a new instance of the Braided Contract is deployed, then that will\n  // have to be a new Strand ID.\n  function getStrandContract(uint strandID) external view validStrandID(strandID) returns (address) {\n    return strands[strandIndexByStrandID[strandID]].strandContract;\n  }\n\n  // get the genesis block hash for the specified strand\n  function getStrandGenesisBlockHash(uint strandID) external view validStrandID(strandID) returns (bytes32) {\n    return strands[strandIndexByStrandID[strandID]].genesisBlockHash;\n  }\n\n  // get the description for the specified strand\n  function getStrandDescription(uint strandID) external view validStrandID(strandID) returns (string) {\n    return strands[strandIndexByStrandID[strandID]].description;\n  }\n\n  // grant role to specified account\n  function addAgent(address agent, uint strandID) external onlyOwnerOrSuperuser() validStrandID(strandID) {\n    addBlockRoles[strandID].add(agent);\n  }\n\n  // revoke role from specied account\n  function removeAgent(address agent, uint strandID) external onlyOwnerOrSuperuser() validStrandID(strandID) {\n    addBlockRoles[strandID].remove(agent);\n  }\n\n  // add a block to the specified strand\n  function addBlock(uint strandID, uint blockNumber, bytes32 blockHash) external validStrandID(strandID) {\n    // caller must have permission\n    require(addBlockRoles[strandID].has(msg.sender), NO_PERMISSION);\n    // the block numbers must increase\n    require(blocks[strandID].length == 0 || blocks[strandID][blocks[strandID].length - 1].blockNumber < blockNumber, INVALID_BLOCK);\n    // add the block\n    blocks[strandID].push(Block(blockNumber, blockHash));\n    // make it possible to look up the block by block number\n    blockByNumber[strandID][blockNumber] = blocks[strandID].length - 1;\n    // add the event for notification\n    emit BlockAdded(strandID, blockNumber, blockHash);\n  }\n\n  // get the block hash for the block number on the specified strand\n  function getBlockHash(uint strandID, uint blockNumber) external view validStrandID(strandID) returns (bytes32) {\n    Block memory theBlock = blocks[strandID][blockByNumber[strandID][blockNumber]];\n    // blockByNumber has 0 for blocks that don't exist, \n    // which could give the wrong block, so check.\n    require(theBlock.blockNumber == blockNumber, INVALID_BLOCK);\n    return theBlock.blockHash;\n  }\n\n  // get the highest block number recorded for the specified strand\n  function getHighestBlockNumber(uint strandID) external view validStrandID(strandID) returns (uint) {\n    return blocks[strandID][blocks[strandID].length - 1].blockNumber;\n  }\n\n  // get the previous block number recorded to the one supplied for the\n  // specified strand (used to walk the strand backwards)\n  function getPreviousBlockNumber(uint strandID, uint blockNumber) external view validStrandID(strandID) returns (uint) {\n    return blocks[strandID][blockByNumber[strandID][blockNumber] - 1].blockNumber;\n  }\n\n  // get the previous block recorded to the one supplied for the specified\n  // strand (used to walk the strand backwards)\n  function getPreviousBlock(uint strandID, uint blockNumber) external view validStrandID(strandID)\n    returns (uint prevBlockNumber, bytes32 prevBlockHash) { // solium-disable-line lbrace\n    Block memory theBlock = blocks[strandID][blockByNumber[strandID][blockNumber] - 1];\n    prevBlockNumber = theBlock.blockNumber;\n    prevBlockHash = theBlock.blockHash;\n  }\n}\n",
  "sourcePath": "/home/cleduc/src/alfa/braided/contracts/Braided.sol",
  "compiler": {
    "name": "solc",
    "version": "0.4.24+commit.e67f0147.Emscripten.clang"
  },
  "schemaVersion": "2.0.1",
  "updatedAt": "2018-10-25T11:58:55.944Z"
}